:020000040800F2
:10000000000800207D0100085B080008590800086E
:1000100000000000000000000000000000000000E0
:100020000000000000000000000000005F08000861
:1000300000000000000000005D08000861080008E2
:100040008F0100088F0100088F0100088F01000850
:100050008F0100088F0100088F0100088F01000840
:100060008F0100088F0100088F0100088F01000830
:100070008F0100088F0100088F0100088F01000820
:100080008F0100088F010008000000008F010008A8
:100090008F0100088F0100088F0100088F01000800
:1000A0008F0100088F0100088F0100088F010008F0
:1000B0005D0F0008000000008F01000800F002F84A
:1000C00000F04CF812A030C8083824182D18AC42A3
:1000D00001D100F043F80FCCA246AB460CA730CFBD
:1000E0002D1B083F3F197C427F1E54442D090426D6
:1000F000F441641EAC4201D300F030F801263342D3
:1001000000D0FB1A3343984754465D46DFE70000B2
:10011000F811000018120000103A02D378C878C114
:10012000FAD8520701D330C830C101D504680C6039
:1001300070470000704700000023002400250026BF
:10014000103A01D378C1FBD8520700D330C100D593
:100150000B6070471FB51FBD10B510BD00F02DF826
:100160001146FFF7F7FF00F021FF00F045F803B458
:10017000FFF7F2FF03BC00F04BF800000748804790
:1001800007480047FEE7FEE7FEE7FEE7FEE7FEE77B
:1001900004480549054A064B7047000069080008F5
:1001A000BD0000080002002000080020000400201C
:1001B00000040020704770477047754600F024F82F
:1001C000AE46050069465346C008C000854618B0D3
:1001D00020B5FFF7DDFF60BCB64600260027C0C58E
:1001E000C0C5C0C5C0C5C0C5C0C5C0C5C0C5403DEF
:1001F000490849008D46704710B50446C046C046C0
:100200002046FFF7B4FF10BD0048704710000020E3
:1002100001491820ABBEFEE726000200704700002F
:10022000F0B58CB005900C68002C00D1CBE067488D
:10023000059A824201D0052000E003200090203280
:10024000019200231D460A9309910CE032433A6063
:100250005B1C0C682046D8400A9A121D0A92AD1CFD
:10026000002800D1AFE0012706979F403C4007944B
:10027000EED0029303242246AA40D0432B464D6879
:100280002E462640721E012A0495039313D8089027
:1002900005988268089C2240CC689C401443846086
:1002A000EA06D20F029B9A404468BC43074608986E
:1002B00014437C6007E0032E059F029B03D1264672
:1002C0000499039D1FE0FA68024009998C68039D18
:1002D000AC401443FC60022E049914D11C210890F8
:1002E0000A9801400F228A40DC08A40001980659B0
:1002F0009643099F3A698A403243025108987968C7
:10030000059F03260E40AE403A68024032433A60F1
:100310008903890F09999BD05A480168069E314389
:100320000160016831400B910322194691430B9AF9
:1003300028480491085808900922D206059890424E
:1003400009D0254A904207D0244A9042009E204F6F
:1003500003D1022601E000261D4F0C220A9802401C
:100360000F2494400899A1431A48049C20189640F1
:100370000E430660BC6809994868C20210D5079E02
:100380003443BC60FC68820210D4B443FC607C68D7
:10039000820310D4B4437C603A68C00311D555E79A
:1003A000079EB443BC60FC688202EED53443FC6017
:1003B0007C688203EED534437C603A68C00300D584
:1003C00044E7B24343E70CB0F0BDC046000C004820
:1003D00000040140080001400004004800080048F3
:1003E000054800687047C0461B48007802490A6803
:1003F000101808607047C046FC01002080B5064810
:10040000016810220A430260032000F007F800F0A0
:1004100025F8002080BDC0460020024070B504468B
:100420007D20C0000C4E317800F05EFE01462F4862
:10043000006800F059FE00F087F80125032C08D869
:10044000002806D10025E84321462A4600F028F876
:100450007460284670BDC0460000002082B0094884
:100460000168012211430160016811400191019965
:10047000110742680A4342604068084000900098B3
:1004800002B0704718100240002805D41F21084010
:1004900001218140014801607047C04600E100E051
:1004A000002805D40322034693430A4A9A1803E01E
:1004B0000C220240064BD2188007C00E8901C9B237
:1004C0008140FF23834010689843084310607047C1
:1004D00014ED00E000E400E00448006815490968F4
:1004E0004905490F024A515CC84070470800002086
:1004F000DE12000810B50F490B680C2018400E4A98
:10050000082809D19802000F0C4C205C896ADB0393
:1005100004D40C49484310BD104610BD0F231940A8
:10052000074B595C0446104600F0DEFD01462046AC
:10053000484310BD0410024000127A00E612000881
:10054000F612000800093D00401E010E01D00120F6
:1005500070470749074A5060074803680B4003216A
:1005600089075918016000209060072111607047C9
:10057000FFFFFF0010E000E020ED00E07047B0B5A5
:1005800000281DD00446C06F002805D17820002126
:100590002154204600F02AF82420E06720680168F2
:1005A0000125A9430160606A002802D0204600F0BE
:1005B0005CF9204600F0FCFA002803D02846B0BDC4
:1005C0000120B0BD0920C00221684A6882434A6008
:1005D00088682A22904388600868012202430A60E2
:1005E000204600F0ABF905462846B0BDB0B586B050
:1005F000002405940494039402940194006817491C
:10060000884201D006B0B0BD15488168012205922C
:100610005204114381608168114000910099016882
:10062000114301600068104000900320049003947F
:10063000022002900C20019000980920C00601A918
:10064000FFF7EEFD1C25284621462246FFF728FF2E
:100650002846FFF719FF06B0B0BDC0460044004071
:1006600014100240F0B581B08023C358202B12D162
:10067000012400290CD0002A0AD001231C0385681C
:10068000A5420CD1CC070AD00469002C07D11C4626
:10069000204601B0F0BD0224204601B0F0BD002488
:1006A000046605686D682D020AD5EFF3108583F3A3
:1006B00010889B06066837681F43376085F31088EB
:1006C00000F00CFB204601B0F0BD7047F0B585B0DE
:1006D0000446C06F202810D1012000290BD0002A29
:1006E00009D001200503A668AE4209D1CE0707D084
:1006F0002669002E04D105B0F0BD022005B0F0BD82
:1007000001930291274650372046843000210391FF
:1007100001602120E0671646FFF762FE04907E80AC
:100720003E80A068A84202D1206900285ED0029DC8
:10073000019E039A2168788800285ED0701C454B82
:100740002ED0002E49D00392C869000608D4FFF7C6
:1007500047FE0499401AB04266D821680868F3E75A
:10076000002D03D0287808856D1C07E0039A1088B7
:10077000384B18400885921C039200257888401E4B
:10078000788078880028DFD137E010881840088505
:10079000921C00257888401E7880788800282CD00C
:1007A000C869000608D4C869000605D4C8690006EF
:1007B00002D4C8690006F3D5002DE6D02878088554
:1007C0006D1CE7E7108818400885921C0025788882
:1007D000401E7880788800280FD0C869000621D58F
:1007E000002DEFD0287808856D1CF0E70025029ACF
:1007F000019E216878880028A0D1CA69002052068D
:1008000013D4002E0ED0721C13D1CA6952060CD418
:10081000CA69520609D4CA69520606D4CA69520680
:10082000F3D502E0FFF7DCFD03202021E16705B0EE
:10083000F0BD0546FFF7D4FD0499401AB042F3D845
:1008400020680168C0694006F4D528462021E16788
:1008500005B0F0BDFF010000FEE7FEE770477047FE
:1008600080B5FFF7C1FD80BD7047B0B5416A0A078A
:100870000CD4CA0714D18A071CD44A0724D4CA0648
:100880002CD48A0634D44A063CD44CE00122D2034C
:1008900003685C689443426B22435A60CA07EAD0FB
:1008A0000122520403685C689443826A22435A60BE
:1008B0008A07E2D50122120403685C689443C26A85
:1008C00022435A604A07DAD50122920403685C6821
:1008D0009443026B22435A60CA06D2D50122120306
:1008E00003689C689443826B22439A608A06CAD547
:1008F0000122520303689C689443C26B22439A60AE
:100900004A0610D501221305026854689C43056C01
:100910002C4354609D4206D103235B0554689C43DD
:10092000436C23435360090607D50121C9040268BB
:1009300053688B43806C18435060B0BDF0B583B0F2
:100940000446064678360025F560FFF749FD034664
:1009500020680168090721D502952B4800900125E0
:100960006905002220461F4600F01AFA002812D01E
:10097000EFF3108085F3108821680A6880239A437A
:100980000A6080F31088032020227C21029D62509F
:10099000357003B0F0BD20683B46029D00684007FB
:1009A00026D5194800900127B9050022204600F0FD
:1009B000F7F900281CD0EFF3108087F31088092185
:1009C0004901226813688B43136080F31088EFF3AA
:1009D000108087F3108821688A68BA438A6080F3A0
:1009E00010880320202280216250357003B0F0BDB2
:1009F0002020E067B060256664212A4628466250C0
:100A0000357003B0F0BDC046FFFFFF01F0B581B007
:100A1000802141580268222910D1014658318B8823
:100A2000928C1A40436D1A804A88521E4A809A1C42
:100A300042654A88002A07D001B0F0BD90690821BC
:100A40000143916101B0F0BD03468033EFF31084A0
:100A5000012282F3108809256D0106683768AF43CB
:100A6000376084F31088EFF3108482F310880568F0
:100A7000AE689643AE6084F3108820241C60002387
:100A8000436683660468646824020AD5EFF3108421
:100A900082F31088950606683768AF43376084F3A1
:100AA0001088046E012C15D10366EFF3108382F3D6
:100AB00010880468256810229543256083F3108808
:100AC0000368DC69E40600D51A620988FFF756FD61
:100AD00001B0F0BDFFF7F9FD01B0F0BDF0B581B098
:100AE000802141580268222911D1014658318B8852
:100AF000928C1A40436D1A704A88521E4A80426D89
:100B0000521C42654A88002A07D001B0F0BD9069A6
:100B100008210143916101B0F0BD03468033EFF33A
:100B20001084012282F3108809256D010668376858
:100B3000AF43376084F31088EFF3108482F310889A
:100B40000568AE689643AE6084F3108820241C606C
:100B50000023436683660468646824020AD5EFF3C1
:100B6000108482F31088950606683768AF433760B3
:100B700084F31088046E012C15D10366EFF3108303
:100B800082F310880468256810229543256083F35A
:100B900010880368DC69E40600D51A620988FFF74B
:100BA000EDFC01B0F0BDFFF790FD01B0F0BD00001D
:100BB000B0B50446006801683E4A0A40A16823694E
:100BC0000B4365691D431543E1690D43056003222D
:100BD000120343689343E2681A434260A269236A9E
:100BE00013430B221202856895431D438560324AE8
:100BF000904209D0314A904208D1314800688007BC
:100C0000000F30A2135802E0002300E0102301255A
:100C1000EA03304891420FD1082B46D87B441B7918
:100C20005B009F4404422442194242422300FFF7E2
:100C300053FC00281BD137E0082B36D87B441B79A6
:100C40005B009F44043225320E3232322400FFF71B
:100C500043FC00281CD127E0FFF74CFC002806D1FC
:100C600022E0FFF747FC002812D11DE010464000AB
:100C700061684A08101800F037FA0246103A16491F
:100C80008A4212D201400007400F08430AE0104692
:100C900061684A08101800F027FA014610390E4A18
:100CA000914202D22168C86000250020A066E0665B
:100CB0002846B0BDF369FFFF004400400038014002
:100CC0003010024000000000040000000800000096
:100CD0000200000000127A00F0FF0000B0B55823B7
:100CE000C252416500218166034658335A808468A8
:100CF00002468032002C09D001252D03AC420ED1D2
:100D00000469002C08D1234C9C8009E00469002C64
:100D100002D07F249C8003E0FF249C8000E0998027
:100D2000516022211160EFF31082012181F31088BC
:100D300003689C680C439C6082F3108802690B0373
:100D400084689C4204D1002A14D0134A826603E0CE
:100D5000114B8366002A0FD0EFF3108281F31088C5
:100D600009214901006803680B43036082F310887E
:100D70000020B0BD094A8266EFF3108281F310882B
:100D80000068016820230B43036082F31088002071
:100D9000B0BDC046FF010000DD0A00080D0A0008D2
:100DA000F0B585B01F4615460E460368D969314037
:100DB000891B4A424A410021AA4222D10A9C002CA6
:100DC00022D00391611C24D1D9693140891B4A4248
:100DD0004A41AA4231D1D9693140891B4A424A412C
:100DE000AA422AD1D9693140891B4A424A41AA42C2
:100DF00023D1D9693140891B4A424A41AA42E3D0F2
:100E00001BE0084605B0F0BDFFF7EAFA032005B085
:100E1000F0BD402E049001D0802E14D1FFF7E0FAEF
:100E2000C01BA0420CD8049800680168C06930401B
:100E3000801B41424141A942F0D0039805B0F0BD6A
:100E4000032005B0F0BD7830019001200090C00271
:100E5000029006E0C8693040801B41424141A942EE
:100E6000EBD1FFF7BDFAC11B0320A1423ED8049984
:100E700009680A685207EDD5CA69120738D4CA69E9
:100E8000029B1A42E6D0029A0A62EFF31082012115
:100E900081F3108809235B01049C246825689D4325
:100EA000256082F31088EFF3108281F31088049B91
:100EB0001B689C688C439C60049B82F310881A6EAC
:100EC000012A0BD1EFF3108281F3108819680B68A7
:100ED0001024A3430B60049B82F310882021019C03
:100EE000A16000221A669A662270E16005B0F0BD2A
:100EF00008250D62EFF31081009880F31088092215
:100F00005201049B1B681C6894431C6081F3108889
:100F1000EFF3108180F31088049A1268936883437A
:100F20009360049B81F31088196E01290CD1EFF3B3
:100F30001081012282F310881A6813681024A343D9
:100F40001360049B81F310882021019A9160002195
:100F5000196699661170D56005B0F0BDB0B55E4CEC
:100F60002068016889061FD5818C5E4D6A88FE2A3B
:100F700016D86B885A1C6A80594AD154C9B20A29BA
:100F800010D16B880021D1542A78002A08D16A88B0
:100F9000CB4353492046FFF799FB01202870206876
:100FA0000021698020210162B0BDC04686B0FFF7F4
:100FB00025FA4848011F0A6801231A430A600A6893
:100FC000920708D40A68920705D40A68920702D4E7
:100FD0000A689207F3D5026803218A430260026817
:100FE000026002681207920F0BD002681207920F7C
:100FF00007D002681207920F03D002681207920FFF
:10100000EFD15A040093036913430361036913404A
:101010000193019B836913438361806910400190B0
:1010200001980025059503950491022002900C2457
:1010300001940920C00601A9FFF7F2F8264F4B20C2
:10104000C001264939607860BD60FD603D617C610A
:10105000BD613846FFF793FA3868016820220A43D9
:1010600002601C26304629462A46FFF719FA304608
:10107000FFF70AFA00980202194C38462146FFF79A
:10108000F1FA2246174B144E01E000205880588890
:101090000028FCD0588800280FD02C461119EB43AB
:1010A0002F46154601223046FFF710FB0D4B2A460E
:1010B0003D46641C58888442F0D358888018401EEE
:1010C00000780D28E1D158888018401E0021017059
:1010D000DBE7C046041002407400002000440040DA
:1010E000FC0000207000002043088B421AD300222D
:1010F00003098B4279D3030A8B425ED3030B8B42E5
:1011000042D3030C8B4227D30902FF2212BA030CED
:101110008B4202D31212090203D0030B8B4233D34A
:101120001AE0D3E0411A8041401C704703460B434C
:1011300071D443088B42F5D3002203098B4254D368
:10114000030A8B4239D3030B8B421DD3030C8B4212
:1011500002D394466EE0090AC30B8B4201D3CB0342
:10116000C01A5241830B8B4201D38B03C01A5241E8
:10117000430B8B4201D34B03C01A5241030B8B42EA
:1011800001D30B03C01A5241C30A8B4201D3CB02D5
:10119000C01A5241830A8B4201D38B02C01A5241BA
:1011A000430A8B4201D34B02C01A5241030A8B42BD
:1011B00001D30B02C01A5241CDD2C3098B4201D3D5
:1011C000CB01C01A524183098B4201D38B01C01A53
:1011D000524143098B4201D34B01C01A52410309CA
:1011E0008B4201D30B01C01A5241C3088B4201D379
:1011F000CB00C01A524183088B4201D38B00C01A26
:10120000524143088B4201D34B00C01A5241411A4C
:10121000524110007047CA0F00D04942031000D35A
:101220004042534000229C4603098B422DD3030ABF
:101230008B4212D38901FC2212BA030A8B420CD3CF
:10124000890192118B4208D3890192118B4204D3F8
:10125000890137D0921100E08909C3098B4201D37B
:10126000CB01C01A524183098B4201D38B01C01AB2
:10127000524143098B4201D34B01C01A5241030929
:101280008B4201D30B01C01A5241C3088B4201D3D8
:10129000CB00C01A524183088B4201D38B00C01A85
:1012A0005241D9D243088B4201D34B00C01A52415C
:1012B000411A00D201465241104663465B1000D3EA
:1012C0004042704763465B1000D3404201B50021A5
:1012D000004201D0C9430846C046C04602BD0000D6
:1012E00000000102030402030405060708090A0BB3
:1012F0000C0D0E0F10100102030405060708090A61
:101300000B0C0D0E0F100000281300080000002029
:101310001000000018010008381300081000002019
:10132000F007000038010008010000000400000080
:0813300000127A000000000029
:04000005080000BD32
:00000001FF
