:020000040800F2
:10000000000700207D010008290D0008D10C000820
:1000100000000000000000000000000000000000E0
:100020000000000000000000000000002D0D00088E
:1000300000000000000000002B0D00082F0D00083C
:100040008F0100088F0100088F0100088F01000850
:100050008F0100088F0100088F0100088F01000840
:100060008F0100088F0100088F0100088F01000830
:100070008F0100088F0100088F0100088F01000820
:100080008F0100088F010008000000008F010008A8
:100090008F0100088F0100088F0100088F01000800
:1000A0008F0100088F0100088F0100088F010008F0
:1000B0008F010008000000008F01000800F002F826
:1000C00000F04CF812A030C8083824182D18AC42A3
:1000D00001D100F043F80FCCA246AB460CA730CFBD
:1000E0002D1B083F3F197C427F1E54442D090426D6
:1000F000F441641EAC4201D300F030F801263342D3
:1001000000D0FB1A3343984754465D46DFE70000B2
:100110005C1300007C130000103A02D378C878C149
:10012000FAD8520701D330C830C101D504680C6039
:1001300070470000704700000023002400250026BF
:10014000103A01D378C1FBD8520700D330C100D593
:100150000B6070471FB51FBD10B510BD00F04DF806
:100160001146FFF7F7FF01F02DF800F065F803B432
:10017000FFF7F2FF03BC00F06BF800000748804770
:1001800007480047FEE7FEE7FEE7FEE7FEE7FEE77B
:1001900004480549054A064B70470000370D000822
:1001A000BD0000080001002000070020000300201F
:1001B0000003002001E004C0091F0429FBD28B07C3
:1001C00001D50280801CC90700D002707047002949
:1001D0000BD0C30702D00270401C491E022904D371
:1001E000830702D50280801C891EE3E70022EEE728
:1001F0000022DFE7704770477047754600F024F82B
:10020000AE46050069465346C008C000854618B092
:1002100020B5FFF7BDFF60BCB64600260027C0C56D
:10022000C0C5C0C5C0C5C0C5C0C5C0C5C0C5403DAE
:10023000490849008D46704710B50446C046C0467F
:100240002046FFF794FF10BD0048704710000020C3
:1002500001491820ABBEFEE7260002007047EFF30D
:10026000108072B6FEE70000F0B58CB005900C6807
:10027000002C00D1CBE06748059A824201D00520CE
:1002800000E0032000902032019200231D460A93D3
:1002900009910CE032433A605B1C0C682046D84060
:1002A0000A9A121D0A92AD1C002800D1AFE0012766
:1002B00006979F403C400794EED0029303242246C9
:1002C000AA40D0432B464D682E462640721E012A76
:1002D0000495039313D8089005988268089C2240DF
:1002E000CC689C4014438460EA06D20F029B9A407B
:1002F0004468BC430746089814437C6007E0032E1B
:10030000059F029B03D126460499039D1FE0FA68CE
:10031000024009998C68039DAC401443FC60022E96
:10032000049914D11C2108900A9801400F228A4098
:10033000DC08A400019806599643099F3A698A404F
:100340003243025108987968059F03260E40AE405B
:100350003A68024032433A608903890F09999BD079
:1003600059480168069E31430160016831400B9194
:100370000322194691430B9A284804910858089083
:100380000922D2060598904209D0254A904207D00A
:10039000244A9042009E204F03D1022601E000260D
:1003A0001D4F0C220A9802400F2494400899A14343
:1003B0001A48049C201896400E430660BC680999B0
:1003C0004868C20210D5079E3443BC60FC688202B4
:1003D00010D4B443FC607C68820310D4B4437C60C6
:1003E0003A68C00311D555E7079EB443BC60FC686A
:1003F0008202EED53443FC607C688203EED5344340
:100400007C603A68C00300D544E7B24343E70CB0D0
:10041000F0BDC046000C0048000401400800014047
:100420000004004800080048054800687047C046BE
:100430001A48007802490A68101808607047C046D8
:10044000F800002080B5C448016810220A43026009
:10045000032000F005F800F023F8002080BDC0461E
:1004600070B504467D20C0000C4E317800F0E6FEE9
:100470000146C148006800F0E1FE00F0A7FB01253D
:10048000032C08D8002806D10025E84321462A4637
:1004900000F01CF87460284670BDC04600000020C3
:1004A00082B00948016801221143016001681140CE
:1004B00001910199110742680A434260406808406F
:1004C0000090009802B0704718100240002805D430
:1004D0000322034693430A4A9A1803E00C2202407F
:1004E000064BD2188007C00E8901C9B28140FF2394
:1004F00083401068984308431060704714ED00E093
:1005000000E400E0F0B587B004468078C007424FB1
:100510004FD00120059001073A1F10680840049051
:1005200006D11068084310601068084006900698CD
:1005300002920391394F3868C00512D4059806021B
:10054000386830433860FFF76FFF0546386830423F
:1005500007D1FFF769FF401B6428F7D9032007B0D4
:10056000F0BD0320019000022B4F3968014012D0EA
:100570006268024091420ED00598000439683A68DA
:1005800002433A603A6882433A600846244A10407F
:100590003860C80730D13868214908406168014394
:1005A00039600498002804D1029A1068039988439E
:1005B00010602168C80706D188060CD400204905C0
:1005C00012D407B0F0BD386903229043A2680243F9
:1005D0003A618806F2D5386910229043E2680243F6
:1005E0003A6100204905ECD53969402291432269DE
:1005F0000A433A6107B0F0BDFFF716FF0546574EB4
:1006000038688007C7D4FFF70FFF401BB042F7D907
:10061000019807B0F0BDC0462010024000700040B5
:10062000FFFCFFFFF0B581B000284DD00D46044619
:10063000494B186801210840A84208D21A680120D5
:1006400082432A431A601A680240AA424FD12068A6
:1006500082075B4B10D5420706D5072212021B68A2
:100660001343574A1360564B1A68F0239A43A36802
:100670001343534A1360524BC00728D1364A1168BE
:1006800001200140A94205D9116881431160116818
:10069000C9072CD12078400706D507200002196829
:1006A0008143E0680843186019680C220A404548F5
:1006B000082A17D18A02120F434B9C5C404B9A6A5E
:1006C000C90333D4424838E0012001B0F0BD62686C
:1006D000181F0068022A07D0012A0AD180030846A1
:1006E00005D509E0044629E08001084604D401B09C
:1006F000F0BD80070846FAD51868032100918843A9
:1007000010431860FFF790FE0646144F2C4B1868F4
:100710000C210140606880008142AFD0FFF784FE69
:10072000801BB842F2D9009801B0F0BD0F210A40F9
:100730002649895C00F082FD214B4443186800067D
:10074000000F0749085CC4400B4804600320FFF712
:1007500087FE002001B0F0BD002002408813000099
:100760003214000804480068154909684905490F12
:10077000024A515CC840704708000020421400083B
:1007800010B50F490B680C2018400E4A082809D1F3
:100790009802000F0C4C205C896ADB0304D40C49DE
:1007A000484310BD104610BD0F231940074B595C3C
:1007B0000446104600F042FD01462046484310BD65
:1007C0000410024000127A004A1400085A1400086B
:1007D00000093D00F0B587B004460120002C00D18F
:1007E000ECE104902078C007F54E05940CD07168B8
:1007F0000C200140042900D08AE03068800303D532
:100800006068002800D1D8E0207880071CD5706887
:100810000007800F09D070680C210140082900D022
:100820008EE07068C00300D58AE030688007059CC0
:1008300003D5E068012800D0BFE03068F821884384
:100840002169C90001433160059C2078000724D448
:100850002078400736D42078C00600D4CCE0706BF6
:10086000059949694A1D00D1BBE0012900D00AE180
:10087000042108437063706B012101437163FFF72A
:10088000D3FD0546706B800700D5ADE0FFF7CCFDCA
:10089000411B03200229F5D990E1706AE169002922
:1008A00079D0012108437062FFF7BEFD0546706AEA
:1008B0008007CDD4FFF7B8FD401B0228F7D90320ED
:1008C00007B0F0BD012003900107F06908400290D5
:1008D00006D1F0690843F061F06908400690069877
:1008E0000191B84F3868C00541D4039804023868B4
:1008F00020433860FFF798FD05463868204236D11E
:10090000FFF792FD401B6428F7D9032007B0F0BD24
:1009100071680140082903D17068C00300D56CE7F5
:100920006268306801214F04002A00D1F9E0052AED
:1009300000D1EFE0012A00D009E1090408430CE1ED
:100940003068059CE16800293AD0012108433060F5
:10095000FFF76AFD05463068800700D56DE7FFF7B1
:1009600063FD401B0228F6D9032007B0F0BD0598AF
:100970008168306A944F002900D1ADE0052900D18B
:1009800095E0012900D196E0039988433062306AEE
:100990000421884391E0012188437062FFF744FD00
:1009A0000546706A800700D452E7FFF73DFD401B03
:1009B0000228F6D9032007B0F0BD049807B0F0BDB7
:1009C000012188433060FFF72FFD0546306880071E
:1009D00000D439E7FFF728FD411B03200229F5D990
:1009E000ECE0042188437063706BF821884305991B
:1009F0008969C900014371630598046A002C1ED0FF
:100A000070680C21014008291CD1012C049800D1E8
:100A1000D4E00120030471680B40F26A059D6C6A02
:100A2000A34200D0CAE00F231A40EC6AA24200D0D1
:100A3000C4E09A041140AA6A914200D0BEE00020AE
:100A400007B0F0BD01200206316804929143316085
:100A50004706FFF7E9FC0546022C0AD13068384208
:100A600000D18AE0FFF7E0FC411B03200229F5D901
:100A7000A4E030683842E2D0FFF7D6FC411B0320E7
:100A80000229F6D99AE0042108437063706B0121B2
:100A900088437063FFF7C8FC0546706B8007ABD5D1
:100AA000FFF7C2FC411B03200229F6D986E004218E
:100AB00008433062306A039908433062FFF7B4FCA0
:100AC0000546306A80071BD4FFF7AEFC401BB842D6
:100AD000F7D9032007B0F0BD039988433062306A2C
:100AE000042188433062FFF79FFC0546306A800787
:100AF00006D5FFF799FC411B0320B942F6D95DE00A
:100B000002980028059C00D0A5E6F0690199884369
:100B1000F061A0E68A04104330600904306808439D
:100B20001BE00A04904330608804316881433160DF
:100B3000FFF77AFC0546059C3068384200D163E631
:100B4000FFF772FC411B03206429F5D936E00A0443
:100B5000904330608904306888433060FFF764FC5C
:100B600005463068384200D04EE6FFF75DFC401B7A
:100B70006428F6D9032007B0F0BDF06A0F2188433E
:100B8000059AD16A0143F1623D20000471688143F6
:100B9000906A0843516A01437160306804990843C0
:100BA0003060FFF741FC04463068384200D046E729
:100BB000FFF73AFC011B03200229F5D907B0F0BD6D
:100BC000001002400070004088130000401E010E1B
:100BD00001D0012070470749074A50600748036861
:100BE0000B400321890759180160002090600721FC
:100BF00011607047FFFFFF0010E000E020ED00E013
:100C0000B0B500281DD00446C06F002805D178205B
:100C100000212154204600F02BF82420E0672068B2
:100C200001680125A9430160606A002802D02046BE
:100C300000F082F8204600F051F9002803D0284641
:100C4000B0BD0120B0BD0920C00221684A688243BE
:100C50004A6088682A22904388600868012202431B
:100C60000A60204600F0D2F805462846B0BD0000D4
:100C700010B586B000210591049103910291019174
:100C80000068D94A904201D006B010BD18484268A9
:100C9000012305939C032243426042682240009254
:100CA000009A5A04036813430360006810400090E0
:100CB0000391022002900320049040020190092039
:100CC000C006009901A9FFF7CFFA06B010BDC046D3
:100CD000FEE7000081B00120400405490A68024394
:100CE0000A60096801400091009801B07047C04651
:100CF0001410024010B50B4800210C22BA4B0162BF
:100D00004162E124640218C0016041608160C260F8
:100D1000016141610838FFF773FF002801D0FFF738
:100D20009EFA10BD70000020FEE77047704780B546
:100D3000FFF77EFB80BD7047B0B5416A0A070CD44F
:100D4000CA0714D18A071CD44A0724D4CA062CD453
:100D50008A0634D44A063CD44CE00122D20303680C
:100D60005C689443426B22435A60CA07EAD001226E
:100D7000520403685C689443826A22435A608A077B
:100D8000E2D50122120403685C689443C26A2243DC
:100D90005A604A07DAD50122920403685C689443DA
:100DA000026B22435A60CA06D2D50122120303689D
:100DB0009C689443826B22439A608A06CAD50122BA
:100DC000520303689C689443C26B22439A604A06AC
:100DD00010D501221305026854689C43056C2C430E
:100DE00054609D4206D103235B0554689C43436CC9
:100DF00023435360090607D50121C90402685368DB
:100E00008B43806C18435060B0BD0000F0B583B0D8
:100E10000446064678360025F560FFF705FB0346D5
:100E200020680168090721D502952B48009001250B
:100E30006905002220461F4600F0E6F8002812D07F
:100E4000EFF3108085F3108821680A6880239A43A5
:100E50000A6080F31088032020227C21029D6250CA
:100E6000357003B0F0BD20683B46029D0068400726
:100E700026D5194800900127B9050022204600F028
:100E8000C3F800281CD0EFF3108087F310880921E5
:100E90004901226813688B43136080F31088EFF3D5
:100EA000108087F3108821688A68BA438A6080F3CB
:100EB00010880320202280216250357003B0F0BDDD
:100EC0002020E067B060256664212A4628466250EB
:100ED000357003B0F0BDC046FFFFFF01B0B504465A
:100EE000006801683E4A0A40A16823690B436569AE
:100EF0001D431543E1690D43056003221203436856
:100F00009343E2681A434260A269236A13430B22A7
:100F10001202856895431D438560324A904209D08C
:100F2000314A904208D1314800688007000F30A252
:100F3000135802E0002300E010230125EA033048A3
:100F400091420FD1082B46D87B441B795B009F440C
:100F500004422442194242422300FFF703FC0028C6
:100F60001BD137E0082B36D87B441B795B009F44AC
:100F7000043225320E3232322400FFF7F3FB002810
:100F80001CD127E0FFF7FCFB002806D122E0FFF789
:100F9000F7FB002812D11DE01046400061684A08A6
:100FA000101800F04BF90246103A16498A4212D244
:100FB00001400007400F08430AE0104661684A08F4
:100FC000101800F03BF9014610390E4A914202D246
:100FD0002168C86000250020A066E0662846B0BDF4
:100FE000F369FFFF00440040003801403010024028
:100FF00000000000040000000800000002000000E3
:1010000000127A00F0FF0000F0B585B01F461546CB
:101010000E460368D9693140891B4A424A41002182
:10102000AA4222D10A9C002C22D00391611C24D117
:10103000D9693140891B4A424A41AA4231D1D96912
:101040003140891B4A424A41AA422AD1D9693140DA
:10105000891B4A424A41AA4223D1D9693140891B9E
:101060004A424A41AA42E3D01BE0084605B0F0BD1F
:10107000FFF7DAF9032005B0F0BD402E049001D04F
:10108000802E14D1FFF7D0F9C01BA0420CD80498D1
:1010900000680168C0693040801B41424141A9425B
:1010A000F0D0039805B0F0BD032005B0F0BD783056
:1010B000019001200090C002029006E0C869304013
:1010C000801B41424141A942EBD1FFF7ADF9C11B61
:1010D0000320A1423ED8049909680A685207EDD559
:1010E000CA69120738D4CA69029B1A42E6D0029A2A
:1010F0000A62EFF31082012181F3108809235B015A
:10110000049C246825689D43256082F31088EFF3D2
:10111000108281F31088049B1B689C688C439C6040
:10112000049B82F310881A6E012A0BD1EFF3108210
:1011300081F3108819680B681024A3430B60049B8B
:1011400082F310882021019CA16000221A669A6611
:101150002270E16005B0F0BD08250D62EFF310814B
:10116000009880F3108809225201049B1B681C68B8
:1011700094431C6081F31088EFF3108180F3108892
:10118000049A1268936883439360049B81F31088E8
:10119000196E01290CD1EFF31081012282F310881E
:1011A0001A6813681024A3431360049B81F310880A
:1011B0002021019A91600021196699661170D5600D
:1011C00005B0F0BD96B0FFF73DF90AAD281D2C2102
:1011D000FFF70EF80024129410200E9001260D96B1
:1011E00002200A9005940494039402942846FFF781
:1011F000F1FA002803D0EFF3108072B6FEE70994ED
:10120000089407940720069006A82146FFF70AFADB
:10121000002803D0EFF3108072B6FEE70394019626
:1012200001A8FFF76FF9002803D0EFF3108072B622
:10123000FEE7FFF74FFDFFF75DFDFEE743088B423A
:101240001AD3002203098B4279D3030A8B425ED35F
:10125000030B8B4242D3030C8B4227D30902FF229C
:1012600012BA030C8B4202D31212090203D0030BF1
:101270008B4233D31AE0D3E0411A8041401C7047BF
:1012800003460B4371D443088B42F5D30022030974
:101290008B4254D3030A8B4239D3030B8B421DD3A9
:1012A000030C8B4202D394466EE0090AC30B8B42B7
:1012B00001D3CB03C01A5241830B8B4201D38B0362
:1012C000C01A5241430B8B4201D34B03C01A524107
:1012D000030B8B4201D30B03C01A5241C30A8B424A
:1012E00001D3CB02C01A5241830A8B4201D38B0235
:1012F000C01A5241430A8B4201D34B02C01A5241D9
:10130000030A8B4201D30B02C01A5241CDD2C3094A
:101310008B4201D3CB01C01A524183098B4201D3C6
:101320008B01C01A524143098B4201D34B01C01AB1
:10133000524103098B4201D30B01C01A5241C30829
:101340008B4201D3CB00C01A524183088B4201D398
:101350008B00C01A524143088B4201D34B00C01A84
:101360005241411A524110007047CA0F00D0494201
:10137000031000D34042534000229C4603098B4295
:101380002DD3030A8B4212D38901FC2212BA030A1D
:101390008B420CD3890192118B4208D3890192119F
:1013A0008B4204D3890137D0921100E08909C30927
:1013B0008B4201D3CB01C01A524183098B4201D326
:1013C0008B01C01A524143098B4201D34B01C01A11
:1013D000524103098B4201D30B01C01A5241C30889
:1013E0008B4201D3CB00C01A524183088B4201D3F8
:1013F0008B00C01A5241D9D243088B4201D34B0013
:10140000C01A5241411A00D2014652411046634669
:101410005B1000D34042704763465B1000D34042EC
:1014200001B50021004201D0C9430846C046C0466C
:1014300002BD0000000000000000010203040607D6
:101440000809000000000102030402030405060766
:1014500008090A0B0C0D0E0F1010010203040506FB
:101460000708090A0B0C0D0E0F100000901400085D
:10147000000000201000000018010008A01400085F
:1014800010000020F00600003801000800000000F5
:10149000010000000400000000127A0000000000BB
:04000005080000BD32
:00000001FF
